:020000040800F2
:1000000088F70020C1010008DB680008BD55000822
:10001000D9680008D52D0008C18E00080000000036
:10002000000000000000000000000000E5010008E2
:10003000952F0008000000007D0200088D020008D6
:10004000DB010008DB010008DB010008DB01000820
:10005000DB010008DB010008DB010008DB01000810
:10006000DB010008DB010008DB010008DB01000800
:10007000DB010008DB010008DB010008DB010008F0
:10008000DB010008DB010008DB010008DB010008E0
:10009000DB010008DB010008DB010008DB010008D0
:1000A000DB010008DB010008DB010008DB010008C0
:1000B000DB010008DB010008DB010008D95500085E
:1000C000CD550008DB010008DB0100082D6E00089B
:1000D000DB010008DB010008DB010008197F0008D4
:1000E000DB010008DB010008DB010008DB01000880
:1000F000DB010008DB010008DB010008DB01000870
:10010000DB010008DB010008DB010008DB0100085F
:10011000DB010008DB010008DB010008DB0100084F
:10012000DB010008DB010008DB010008DB0100083F
:10013000DB01000821310008DB010008DB010008B9
:10014000DB010008DB010008DB010008DB0100081F
:10015000DB010008DB010008DB010008DB0100080F
:10016000DB010008DB010008DB010008DB010008FF
:10017000DB010008DB010008DB01000800000000D3
:10018000DB010008DB010008DB010008DB010008DF
:10019000DB010008DB010008DB010008DB010008CF
:1001A000DB010008DB010008DB010008DFF80CD0F0
:1001B00000F022FD00480047F5BC000888F7002049
:1001C0000648804706480047FEE7FEE7FEE7FEE7F1
:1001D000FEE7FEE7FEE7FEE7FEE7FEE7617B0008DD
:1001E000AD0100081EF0040F0CBFEFF30880EFF321
:1001F0000980816911F8021C91BB01B590E80F10CC
:10020000E047BDE800508CE80300244B93E806006B
:10021000914208BF704741B91EF0100F10D120491C
:10022000086820F0010008600AE02CE9F00F1EF0D9
:10023000100F08BF2CED108AC1F838C081F822E0F9
:100240001A6092F82210906B61F0FF0E1EF0100FF2
:1002500008BFB0EC108AB0E8F00F80F3098870474F
:10026000104A13689942FAD801B552F821C00FC854
:10027000E047BDE80050CCF80000704701B501F040
:10028000CBFABDE80140EFF3098CBEE701B501F000
:100290002DFDBDE80140EFF3098CB6E7C08F0020CB
:1002A00034EF00E0207901082DE9F05F05460020D9
:1002B00092469B4688460646814640241BE02846D7
:1002C00041464746224600F032FA53465A46C01A83
:1002D000914110D311461846224600F019FA2D1A02
:1002E00067EB01084F4622460120002100F010FA7A
:1002F00017EB00094E41201EA4F10104DFDC484643
:1003000031462A464346BDE8F09F40EA01039B0779
:1003100003D009E008C9121F08C0042AFAD203E07A
:1003200011F8013B00F8013B521EF9D27047D2B2DE
:1003300001E000F8012B491EFBD270470022F6E7CE
:1003400010B513460A4604461946FFF7F0FF20464B
:1003500010BD421C10F8011B0029FBD1801A704708
:1003600010B5002200E0521C835C8C5CA34201D1DA
:10037000002BF8D1D8B2E1B2401A10BD30B5044616
:100380000020034600E05B1C934203D2E05CCD5C9E
:10039000401BF8D030BD034611F8012B00F8012BAB
:1003A000002AF9D11846704730B5054600200346AB
:1003B00000E05B1C934205D2EC5CC85C201A01D1C2
:1003C000002CF6D130BD00000FB400B58DB010A9DF
:1003D00009900B9000914FF0FF300A9000200C9094
:1003E00005480690054807906A4609A80F9900F04D
:1003F000C3F90DB05DF814FB95070008B3070008BA
:100400002DE9FF5F1D464FF0FF3BD5E901469146C0
:100410005F464FF00008A9697F1C01988847296A48
:10042000824688470028F6D1BAF1FF3F0CD024F469
:10043000C064002E19DD600614D5BAF12B0F09D067
:10044000BAF12D0F0ED103E0584604B0BDE8F09F7D
:1004500044F48064A9697F1C01988847761E82460F
:10046000002E02DDBAF1300F03D0B9F1000F26D013
:1004700032E0A969761E44F400747F1C0198884715
:100480008246002E05DDBAF1780F06D0BAF1580F7A
:1004900003D0B9F1000F10D01EE0B9F1000F02D067
:1004A000B9F1100F18D1A969761E24F400747F1CCD
:1004B000019888478246102002E0082000E00A20C8
:1004C000814609E008FB0908A969761E44F4007416
:1004D0007F1C019888478246002E05DD494650461C
:1004E00000F035F90028EDDAE96901988847A005A0
:1004F00002D46FF00100A8E7E00725D1600613D50C
:10050000600502D5C8F1000000E0404629680A1DD8
:100510002A600968220501D5087015E0220701D577
:10052000088011E008600FE02868011D296000685C
:10053000210502D580F8008006E0210702D5A0F849
:10054000008001E0C0F8008038467EE770B50646BE
:1005500008F0ECFC046805460A220021304600F051
:1005600039F92C6070BD2DE9FE4F81EA030404F0D7
:10057000004421F0004100944FF0000B23F00043B1
:1005800050EA01045ED052EA03045BD0C3F30A547C
:10059000C1F30A552C44A4F2F3340194A0FB025495
:1005A000C1F3130141F48011C3F3130343F4801327
:1005B00001FB024400FB034E840A970A44EA81547B
:1005C00047EA8357A4FB076802958D0A05FB078558
:1005D0004FEA932C04FB0C542705029D4FEA065862
:1005E00047EA1637B5EB08056EEB070C870E920E3F
:1005F00047EA811742EA8312A7FB0201B6EB0B011F
:1006000064EB00042B0D43EA0C335E1844EB1C50E2
:10061000DA465146E7FB0201C5F313044FEA0B33F8
:1006200043EA14534FEA0432019C43EA0603A4F15F
:100630000C040294009CCDE900B400F049F903B029
:10064000BDE8F08F00200146F9E70EB5C10F80EA42
:10065000E0700844CA07002140F233438DE80E00E1
:100660000A460B4600F034F903B000BD0EB540F267
:10067000334102910021CDE900110A460B4600F0FA
:1006800027F903B000BD00F0004230F000400AD06E
:10069000C10D01F56071C0F3160042EA0151C208B4
:1006A00040071143704700200146704701F00043A6
:1006B00030B421F0004150EA010206D00A0DA2F543
:1006C0006072C1F31301002A02DC30BC00207047C5
:1006D000440F44EAC104C100E01830BC00EBC25032
:1006E00000F0B0B830B50B460146002020220124AE
:1006F00009E021FA02F59D4205D303FA02F5491BF0
:1007000004FA02F52844151EA2F10102F1DC30BD05
:10071000202A04DB203A00FA02F1002070479140C1
:10072000C2F1200320FA03F3194390407047202AB6
:1007300004DB203A21FA02F00021704721FA02F38B
:10074000D040C2F1200291400843194670473A2830
:1007500000D2303820F02002412A01D3A2F1370024
:10076000884201D34FF0FF30704700000268114407
:100770001378016018467047D160044951610449FB
:10078000116200211161114600F068BA6D0700087E
:10079000490C0008426842B1016811F8013B23B1DD
:1007A000521EC0E90012184670470121C160881E20
:1007B000704742685AB1C368016843B983688B4285
:1007C00005D0491E521CC0E90012002070474FF0AE
:1007D000FF3070472DE9F04791460F4680460446AA
:1007E000002614F8015B2DB100F02AFA0068405D84
:1007F000C007F6D12B2D02D02D2D18D0641E4A46ED
:100800003946204600F0C0FB27B13968A14201D12A
:10081000C7F8008071054FF002040BD54042002854
:1008200003DD08F083FB0460A007BDE8F08746F411
:100830008066E4E70028F8DA08F078FB04606FF0DF
:100840000040F2E70029A8BF7047401C490008BFDC
:1008500020F00100704710B4B0FA80FC00FA0CF0F0
:1008600050EA010404BF10BC704749B1CCF1200428
:1008700021FA04F411FA0CF118BF012121430843B5
:10088000A3EB0C01CB1D4FEA00614FEA102042BFE1
:10089000002010BC704700EBC35010440029A4BFD7
:1008A00010BC7047401C490008BF20F0010010BC7C
:1008B000704710B5141E73F1000408DA401C41F1B2
:1008C000000192185B411A4301D120F0010010BDD4
:1008D0002DE9F04D92469B4611B1B1FA81F202E04A
:1008E000B0FA80F220329046FFF712FF04460F461E
:1008F00040EA0A0041EA0B0153465A46084313D026
:10090000114653EA010019D0C8F140025046FFF7E2
:100910000EFF05460E46504659464246FFF7F8FE82
:10092000084305D0012004E020463946BDE8F08D9B
:100930000020054346EAE0762C4337430A986305D6
:10094000E40AA0EB08000022FD0A44EA47540A30FA
:1009500002D500200146E9E7010510196941DDE9EA
:10096000084500196941BDE8F04DA2E72DE9FE4FA9
:10097000804681EA0300C00F0C46009021F0004140
:1009800023F00045B8EB0200A94105D240462146BC
:1009900090461C460B46024623F00040104347D0C9
:1009A000270DC7F30A00C3F30A510290401A0190C1
:1009B00040286BDAC3F3130040F4801B0098924682
:1009C00020B10023D2EB030A63EB0B0B01985946CD
:1009D000C0F140025046FFF79BFE06460D465046CA
:1009E0005946019A00F01AF910EB08006141002401
:1009F00087EA115284EAE7731A4340D0009A62B33F
:100A0000019A012A4FEA075215DC001B61EB020133
:100A10004FF0004202EA0752CDE90042001C41F5C6
:100A2000801132462B46FFF753FF03B0BDE8F08F2D
:100A300040462146F9E7001B61EB0201001C41F52D
:100A4000801300185B412018A2F5001747EB030143
:100A500040EAD570B6196D4111E06D084FEA3606CF
:100A600045EAC0754FEA0752001B61EB0201001C0A
:100A700041F5801149084FEA3000001951413246D2
:100A80002B4603B0BDE8F04FFFF713BF00980122DB
:100A900040000023D0EB020263EBE0730098214694
:100AA0004FEAE074B8EB000061EB0401E9E783F082
:100AB00000435BE781F0004158E72DE9F04D81EA02
:100AC000030404F0004B21F0004514464FF0000AE7
:100AD00023F0004150EA050220D054EA01021DD063
:100AE000C5F30A570246C5F31303C1F31300C1F35C
:100AF0000A5640F4801543F48013A7EB0608101B38
:100B0000D64608F2FD3873EB050002D308F1010860
:100B100001E092185B41B8F1000F03DA00200146B2
:100B2000BDE8F08D00204FF48011064684460EE0AB
:100B3000171B73EB050705D3121B63EB0503064375
:100B40004CEA010C49084FEA300092185B4150EA28
:100B50000107EDD152EA030012D082EA040083EAD1
:100B60000501084305D0101BAB4106D2012200232A
:100B700006E000224FF0004302E06FF00102531044
:100B80001AEB06004CEB085110EB0A0041EB0B018D
:100B9000BDE8F04DFFF78DBEC1F30A52C1F313015A
:100BA00040F2FF3341F480119A4202DA00200146FC
:100BB000704740F233439A42A2F2334202DC52427F
:100BC000FFF7B5BDFFF7A4BD30B5041E71F10004F9
:100BD00004DB4FF00044404264EB0101141E73F14A
:100BE000000405DB1C464FF00043524263EB040354
:100BF000994208BF904230BD064C074D06E0E068C0
:100C000040F0010394E8070098471034AC42F6D353
:100C1000FFF7D0FACC830108EC830108202A06DB19
:100C2000CB17203A41FA02F043EAE07306E041FABA
:100C300002F3D040C2F120029140084319467047A8
:100C400000487047787F010810B50446FFF7F8FFA9
:100C50000068005D00F0010010BD00002DE9F34FB9
:100C60008BB04FF0000801F10C000C464FF0010B67
:100C700046460DF1080A01906269012101989047EA
:100C8000051E2DD0252D2CD0216A8847C0B1626960
:100C9000012101989047216A88470028F7D1411E19
:100CA00062690198904700E0761CA1690B9888471B
:100CB000216A88470028F7D1E1690B988847DBE76C
:100CC000A1690B9888470746A84201D1761CD3E753
:100CD000E1690B9888477F1C02D1B8F1000F6FD0F3
:100CE00046E1002762693D463946019890472A2827
:100CF00004D162690121019890470125DFF88492AF
:100D00006269012101989047A0F130010A290AD2B5
:100D10004F45E5DC07EB870100EB4107303FDFD4AF
:100D200045F01005ECE7E90601D46FF000476C28A8
:100D30000AD04C2814D0682815D06A280DD0742801
:100D40001CD07A281AD01DE06269012101989047D1
:100D50006C2802D045F0040514E045F002050DE0D2
:100D600045F020050AE06269012101989047682852
:100D700002D045F0080505E045F4006562690121EF
:100D800001989047C4E9015765283DD019DC5828DF
:100D90007AD00CDC452837D004DC252826D0412821
:100DA00031D131E046282FD047282CD12CE05B28C8
:100DB00077D0612828D063287CD0642823D15AE0DA
:100DC000D0E06F2848D008DC66281DD067281BD0EB
:100DD000692821D06E2816D127E0702845D07328C5
:100DE00068D0752847D078280DD14DE0A1690B98BF
:100DF0008847054625283FF469AFE1690B98884785
:100E00006D1C3FF46AAFB3E023466A466FF0010001
:100E10000B99AFF300809EE045F040006060A807AA
:100E200023464FF0000236D43EE0E8077FF447AF98
:100E30002068011D21600068290501D506701BE7A7
:100E4000290701D5068017E7A90703D5F117C0E9DF
:100E5000006111E706600FE745F040006060A807F9
:100E600023464FF0080216D41EE040F60E0125EA94
:100E70000100606016E045F040006060A80723466E
:100E80004FF00A0207D40FE045F040006060A80769
:100E900008D5234610226FF001000B99AFF30080B4
:100EA00059E007E0234610226FF001000B99FFF78D
:100EB000A7FA50E04FF000094F464B46632802D096
:100EC0005B2806D040E0E80601D40120A06001279D
:100ED0003AE062690121019890475E2805D14FF000
:100EE00001096269494601989047216939B9002191
:100EF0000A46534643F82120491C0829FADBB0B3BF
:100F0000216969B9C11700EBD16253110AEB830162
:100F100022F01F02821A01200B68904003430B60ED
:100F200062690121019890475D28E8D1B9F1000F6D
:100F300009D00020514651F82020D24341F820200A
:100F4000401C0828F7DB02AB224600976FF0010037
:100F50000B99AFF3008000280CDA401C08D1BBF1DC
:100F6000000F05D04FF0FF300DB0BDE8F08FFFE768
:100F70004046F9E7E90701D108F1010806444FF0BE
:100F8000000B79E6CCCCCC0C2DE9F05F82460078E2
:100F9000002715468B460AF10104B946302801D0D6
:100FA0009DB113E014F8010B0127782803D05828CD
:100FB00001D045B10AE00DB1102D07D10027102551
:100FC00014F8010B02E0082500E00A250026B046CF
:100FD0000EE005FB080005FB06F1012701EB1046BA
:100FE0001FFA80F8B6F5803F00D3B94614F8010B1C
:100FF0002946FFF7ACFB0028EBDABBF1000F05D068
:101000000FB1641E00E05446CBF80040B9F1000F68
:1010100006D007F08BFF02210160C81EBDE8F09FDB
:1010200048EA0640FAE770B58C1810F8015B15F035
:10103000070301D110F8013B2A1106D110F8012B4A
:1010400003E010F8016B01F8016B5B1EF9D12B076F
:1010500005D40023521E0DD401F8013BFAE710F825
:10106000013BCB1A921C03E013F8015B01F8015B12
:10107000521EF9D5A142D8D3002070BD10B500F1A1
:10108000280151E8002F12B9BFF32F8F04E0531E3F
:1010900041E8003404B1F4E772B12C30012100685A
:1010A00050B1821CD2E84F3FC2E8441F04B1F9E7B7
:1010B0001A0602D00830F2E7002010BD70B50246D3
:1010C00052F8305F4DB1CC7800235DB12E46ED78FB
:1010D000A5420DD275683346F7E70023C1E9013315
:1010E000C1620DE00024C1E9014300F12C0403E0DA
:1010F000C1E9016306F108042160002B18BF1A1D25
:101100001160283050E8001F4A1C40E8002303B15A
:10111000F8E770BDD1E90123002A0EBFC3629360D6
:101120008B68191D002B08BF00F130010A60704761
:1011300001480068704700BF10E000E007480178F0
:10114000012905D106494FF080620A600021017033
:101150000448016841F001010160704784F30020F8
:1011600004ED00E010E000E04FF0FF3070470000B9
:1011700040B10B490968B1FBF0F0411E0020B0EB13
:10118000116F02D04FF0FF307047064AFF231370F3
:10119000054A062313605160044908709060704747
:1011A0006C8F002023ED00E010E000E084F30020CD
:1011B000B0B500F10C01C289D1E85F3F9A4202D874
:1011C000BFF32F8F04E05C1CC1E8554F05B1F3E776
:1011D000C28999B20020914238BF0120B0BD10B53C
:1011E000930712D400F12803D0071ED153E8000F53
:1011F000084203D1BFF32F8F002005E020EA01024F
:1012000043E8002404B1F1E710BD806A00EA01035D
:101210008B42014618BF002112F0010208BF0146AF
:1012200053EA020018BF084610BD53E8000F00EA59
:1012300001028A4203D0BFF32F8F002005E020EA8D
:10124000010243E8002404B1EFE710BDB0B5104A35
:101250000023443215462C683CB12569A94209D3C4
:10126000491B04F10C052346F5E70024C0E90234CC
:10127000016106E0C0E902340161A0602569691AD4
:101280002161002B18BF03F10C021060B0BD00BF3C
:10129000AC8F0020C16829B1826803698A600A693D
:1012A0001A440A618068044A00F10C03002808BF50
:1012B00002F1440319607047AC8F0020EFF3058101
:1012C00029B9EFF3108111B9EFF3118111B16FF06A
:1012D00005007047DFF804C000DF7047ED1F00080D
:1012E000EFF3058048B9EFF3108030B9EFF31180C8
:1012F00018B9EFF31480C00702D10448007A704790
:10130000DFF804C000DF704701200008AC8F002028
:10131000EFF3058028B9EFF3108010B9EFF31180D7
:1013200010B10348C0687047DFF808C000DF70479D
:10133000AC8F00200D200008EFF3058028B9EFF3F3
:10134000108010B9EFF3118010B103484068704766
:10135000DFF808C000DF704720830108192000086B
:1013600080B500F0DFF8EFF3058028B9EFF31080C7
:1013700010B9EFF3118010B16FF0050080BDDFF8F8
:1013800008C000DF80BD00BF25200008EFF3058006
:1013900028B9EFF3108010B9EFF3118010B16FF09E
:1013A00005007047DFF804C000DF704775210008B2
:1013B000F8B514460E460546EFF3058028B9EFF35D
:1013C000108010B9EFF31180F0B16FF003000DB38E
:1013D00003BBFEB12978FA291CD12846FFF74EFE3F
:1013E00078B16A6A074600F10C013046FEF78DFFBE
:1013F0000CB1F87820703846FD6000F053FA0020F8
:10140000F8BD6FF00200F8BD2846DFF80CC0314689
:10141000224600DFF8BD00BFFD210008EFF3058381
:101420002BB9EFF3108313B9EFF311830BB1002045
:101430007047DFF808C000DF704700BFDD220008FA
:101440002DE9F04190460D460646EFF3058028B998
:10145000EFF3108010B9EFF3118018B36FF00307AA
:10146000EEB1E3B9DDB13078FA2818D106F10C00FD
:1014700000F0D2F888B1726A04460C302946FEF7B3
:1014800044FF0027F920C4E9015684F80380A770BF
:101490002070204600F006FA01E06FF0020738469F
:1014A000BDE8F0813046DFF80CC02946424600DF37
:1014B000BDE8F0810D240008EFF305822AB9EFF3AF
:1014C000108212B9EFF3118212B16FF0050070476C
:1014D000DFF804C000DF7047CD240008EFF305817A
:1014E00029B9EFF3108111B9EFF3118109B100208F
:1014F0007047DFF808C000DF704700BF61250008B3
:10150000EFF3058129B9EFF3108111B9EFF31181E0
:1015100011B16FF005007047DFF804C000DF7047BD
:10152000C92500087047F0B5002390B389B3032A9A
:101530002FD8034653F8084F0F3121F007012546F5
:10154000E61A5C6824F00307F61B8E4205D22C686D
:101550002B46002CF3D100231BE0D0E900650D449D
:101560004560304450F8046CAE4202D20838456001
:101570005C6854B1186824F00304E05041EA0200AA
:10158000E118486019600B4602E041EA0200586029
:1015900008331846F0BDB0B50022E8B1E1B100F162
:1015A0000804A1F108020023944206D025462468CD
:1015B0002B46002CF8D100220EE051F8045C446860
:1015C00025F00305641B446013B11068186002E045
:1015D000002041F8040C01221046B0BD08B14207BA
:1015E00002D000221046704700221829FAD311F0C9
:1015F0000703F7D110B50A18A2F10803836000238E
:1016000042F8083C8268102454600122C0E90014AA
:10161000C360BDE81040E5E710B5002817D00146CB
:1016200000F1140252E8000F10B9BFF32F8F04E04D
:10163000036842E8003404B1F4E740B1043151E8F2
:10164000002F531C41E8003404B1F8E710BD00201E
:1016500010BDB0B500281ED0C2688A421BD80269EE
:101660008A4218D900F1140213680B60BFF35F8F30
:1016700052E8003F0C689C42F6D142E8001505B1E3
:10168000F2E7043050E8001F4A1E40E8002303B18F
:10169000F8E70020B0BD6FF00300B0BDB0B5044660
:1016A0000020ACB1A1B19AB193B10020C4E90010FF
:1016B00004F1080002FB01352CC0481E636120B113
:1016C0009918196001380B46F9E7002018600120CD
:1016D000B0BDF8B50446807868B3E5682146284671
:1016E000FFF718FD002005F10C062070304621465A
:1016F000FFF7AFFFA868E8B13046FFF78DFFC8B12C
:101700000446284600F016FA00210022064600276B
:1017100000F0D2FA304600F06DFA81686A6A064637
:1017200004F10C00FEF7F1FDF920A7702070F068BD
:10173000E07025E0F8BDA568A86808B34078832864
:101740001ED1284600F0F6F90021002206460027A7
:1017500000F0B2FA304600F04DFA064680686A6A38
:1017600004F10C01FEF7D1FDF06808B1E1780170D9
:10177000277005F10C002146BDE8F840FFF769BF6E
:1017800028462146BDE8F840FFF798BC2DE9F04116
:10179000044600274FF00108D4B12546E878646973
:1017A0000007F9D52F76A8680028F5D0284600F064
:1017B000C1F900210022064600F07EFAC5E9036760
:1017C000F06A686100B1056185F81880F562E3E7A9
:1017D000BDE8F081B0B5C278920715D5C068C36A7C
:1017E00090F821209C688C4208BF8C682CB194F939
:1017F000204055B2AC42C8BFE2B25B69002BF1D1C8
:1018000090F82010914200D1B0BD80F82020BDE8B2
:10181000B04000F0BEB9000070B5214C04F156058F
:1018200004F15A06B4F85400D5E85F1F11B9BFF3AC
:101830002F8F04E04A1EC5E8532F03B1F4E70904D3
:1018400029D0D6E85F1F4A1C904200D80022C6E883
:10185000532F03B1F5E788B2E16D51F82000D0B104
:101860000178F1390829DDD8DFE801F0060509051E
:10187000050C0F051200D5E7216E8847D2E7616E8F
:101880008847CFE7A16E8847CCE7E16E8847C9E774
:10189000216F8847C6E70020BDE8704000F0F2B82D
:1018A000AC8F002070B50146194800F15603B0F81E
:1018B0005420D3E85F4FA24202D8BFF32F8F04E039
:1018C000651CC3E8565F06B1F3E7A3B2934214D296
:1018D00000F15803D3E85F4F651CAA4200D80025E9
:1018E000C3E8565F06B1F5E7C36DA2B243F8221014
:1018F000417A39B10121817270BD0220BDE870408A
:101900000DF0E5BA03484FF08051016070BD00BF93
:10191000AC8F002004ED00E010B58168B1B100F19A
:101920000C01D1E85F2F12B9BFF32F8F04E0531ED3
:10193000C1E8543F04B1F4E7110407D000F0FAF80D
:1019400000210022BDE8104000F0B6B910BD000033
:1019500010B5012141700B4990F920301C310A4625
:10196000896841B191F920409C42F8DCC0E902123B
:1019700090600C3104E00021C0E9021202F108017C
:10198000086010BDAC8F0020B0B54A1C0DD01A4ABB
:1019900000242C3215462B68DBB1DD69A9421AD32D
:1019A000491B03F110051C46F5E7134900233031AC
:1019B0000C461A46236803F11004002BF9D14FF0AE
:1019C000FF33C3610023C0E904329AB102F1100170
:1019D00010E0002500E00125002CC0E90434C161BD
:1019E00018BF04F1100210602DB1DA69511AD961E3
:1019F00003F114010860B0BDAC8F0020C269016919
:101A0000531C0AD021B143694B61CB691A44CA61A6
:101A100042693AB90748C162704709B142694A61EF
:101A200042691AB1002343611161704701480163A3
:101A3000704700BFAC8F002070B5114DEC6A1CB12F
:101A4000E0690138E06100D070BD04266078133889
:101A5000B6EB301F05D1204600F095F82146FFF780
:101A6000B9FE204600F085F8204600F0B9F8246958
:101A700024B1E0690028E9D000206061EC6270BD0B
:101A8000AC8F0020B0B5054613484469017A65B1B2
:101A9000022905D194F9200095F92010814211DC2A
:101AA0002846BDE8B04000F09BB8022912D1456A33
:101AB00085B194F9200095F9201081420ADD28466D
:101AC00000F057F82046FFF743FF2846BDE8B04036
:101AD00000F0CEB8B0BD00BFAC8F002010B50446FA
:101AE00000202080A07881070DD5C00605D41048BD
:101AF000216B406FFFF74FFD05E00D48216BD0F8DB
:101B00008400FFF7A6FDA078C00708BF10BD0849F4
:101B1000D1F8880020B12146BDE81040FFF799BDFB
:101B2000D1F880002146BDE81040FFF734BD00BF6A
:101B3000AC8F00200146806882688A6002B1D16063
:101B40000021C160704710B591F9203002468068CD
:101B500040B190F920409C42F8DAC1E9020291605C
:101B60000C3004E00020C1E9020202F1080001602B
:101B700010BDC16831B182688A60826802B1D160EB
:101B80000021C16070470178F12918BF7047C06813
:101B9000F9E7B0B50446054625B12878F12802D109
:101BA000ED68F9E7B0BD2046FFF7E3FF2846214680
:101BB000BDE8B040FFF7C7BF10B5044640783328F2
:101BC0000DD194F82320616A2046FFF708FB30B15D
:101BD000014620460022BDE8104000F06DB810BD5F
:101BE00001460120487002481C30FFF7ACBF00BF1F
:101BF000AC8F002090F82210C9064FF0200158BF8A
:101C00006021806B084470470748416939B1086B0F
:101C10008A6B824204D90068044A904200D170471E
:101C200001200DF054B900BFAC8F0020A52E5AE260
:101C300070B50B4C0B48A26D666E002100F04EFE95
:101C4000094DA8624EB1E26D0848002100F046FE41
:101C5000A864002818BF012070BD012070BD00BF1E
:101C600020830108D1EE0008AC8F00205D1D000824
:101C70000249886102214170FFF7C6BFAC8F002086
:101C800010B50C4C0246237A0020022B11D1636A56
:101C90007BB160694270FFF777FE606A81686162BC
:101CA00011B104F11C02CA600021C160FFF7E0FF1E
:101CB000012010BDAC8F0020B0B5044690F8220082
:101CC0001546C0064FF0200058BF6020A26B81501F
:101CD0002046FFF793FE20461DB1BDE8B040FFF758
:101CE000D1BEBDE8B040FFF77BBF0000B0B5FFF745
:101CF0001FFA194DE968286D0131E96000B180478C
:101D0000FFF79AFE0020FFF7BDFE296C11B3AA6908
:101D1000A86B90421CBFC5E90E21B0BDE96B11B1A3
:101D20000139E96316D1297A022913D16C6A8CB181
:101D300090F8200094F8201081420BD12046FFF744
:101D400018FFA86BFFF74CFF2046FFF791FF286CA8
:101D5000C5E90E40B0BD00BFAC8F002082B00B487B
:101D60000821D0E91820FFF759FB094D09496C46B5
:101D7000C5E91301214600224FF0FF33FFF718FB9E
:101D800010B9DDE900108847E86CF3E7208301080B
:101D9000AC8F0020991D000870B5134D6C6C14B306
:101DA0002069012601382061ECB12069D8B9E068CA
:101DB00008B1A16881606864E86C04F11801002230
:101DC0000023FFF73DFB18B1032021460DF07FF8FB
:101DD000E078012804D161692046FFF737FA00E076
:101DE00066706C6CE0E770BDAC8F0020EFF305828D
:101DF0002AB9EFF3108212B9EFF31182CAB16FF072
:101E00000302A0B199B90178F62910D10C30D0E8BD
:101E10005F1F11B9BFF32F8F04E04A1EC0E8532F94
:101E200003B1F4E70022080408BF6FF00202104675
:101E30007047DFF808C000DF704700BF7D2600084C
:101E4000EFF305832BB9EFF3108313B9EFF311838D
:101E50000BB100207047DFF808C000DF704700BFFB
:101E6000D526000810B50446EFF3058028B9EFF336
:101E7000108010B9EFF3118090B15CB12078F62892
:101E800008D12046FFF794F938B12046FFF70AFD44
:101E9000002010BD6FF0030010BD6FF0020010BDF8
:101EA0002046DFF808C000DF10BD00BF552700083E
:101EB000DFF804C000DFFEE78D270008EFF305819F
:101EC00029B9EFF3108111B9EFF3118111B16FF05E
:101ED00005007047DFF804C000DF7047F5270008F1
:101EE000B0B5EFF305822AB9EFF3108212B9EFF320
:101EF0001182DAB16FF00304B0B1002914D4027872
:101F0000F12A11D14278042A02D16FF002040BE0C9
:101F100000F1280252E8003F43EA010442E800458C
:101F200005B1F7E7FFF7BEFC2046B0BDDFF804C0FF
:101F300000DFB0BD29280008EFF305832BB9EFF3CC
:101F4000108313B9EFF3118313B16FF005007047DD
:101F5000DFF804C000DF704791280008EFF3058325
:101F60002BB9EFF3108313B9EFF311830BB10020FA
:101F70007047DFF808C000DF704700BFDD280008A9
:101F8000EFF3058028B9EFF3108010B9EFF311805B
:101F900010B16FF005007047DFF804C000DF704734
:101FA000AD2A000810B5EFF305842CB9EFF31084C7
:101FB00014B9EFF311840CB1002010BDDFF804C098
:101FC00000DF10BDE52A0008EFF305822AB9EFF320
:101FD000108212B9EFF3118212B16FF00500704751
:101FE000DFF804C000DF70475D2B000830B180B51A
:101FF00001461320FFF744FEBDE8804000207047F3
:102000000148007A704700BFAC8F00200148C068CB
:10201000704700BFAC8F002001484068704700BF88
:10202000208301082DE9F8434F4F387A30B1012859
:1020300000F096804FF0FF30BDE8F88307F108000C
:102040009C21FEF77BF9DFF82481B8F81000D8E96D
:102050000B41A7F85400D8E90202FA65386420461B
:10206000FFF7BCFA08B1C7F88040D8E90541DFF8AE
:102070000091D8E907562046C847D7F880100028B5
:1020800018BF2146796728463146C847D7F88010DF
:10209000002818BF2946B967D8E909412046C84732
:1020A000D7F88010002818BF2146D8F83440F967C7
:1020B0003CB12168D4E902232046FFF7EFFAC7F8C4
:1020C0008440D8F838403CB12168D4E90223204646
:1020D000FFF7E4FAC7F88840D8F83C403CB12168E3
:1020E000D4E902232046FFF7D9FAC7F88C40D8F884
:1020F00040403CB12168D4E902232046FFF7CEFAE4
:10210000C7F89040D8F844403CB12168D4E9022394
:102110002046FFF7C3FAC7F89440D8F848403CB1CE
:102120002168D4E902232046FFF7B8FAC7F898409F
:10213000D8F84C403CB12168D4E902232046FFF78F
:10214000ADFAC7F89C40D8F850403CB12168D4E9BA
:1021500002232046FFF7A2FAC7F8A04001203872F8
:102160000020BDE8F88300BFAC8F00202083010869
:10217000DD150008B0B51D4C207A01281CD1FFF7F1
:1021800057FDC8B11A48FF218175817D026881F031
:10219000FF01B1FA81F1C1F12001C2F302228A42AA
:1021A00028BF511CFE2202FA01F1124DC174686869
:1021B0001149FEF7DDFF10B14FF0FF30B0BDFEF763
:1021C000D3FF2061FEF7BAFF04F11C00FFF7B2FC59
:1021D000FFF74EFD2878C0070CBF0320022080F3D4
:1021E0001488022020720020B0BD00BFAC8F0020F8
:1021F0000CED00E0208301088D0200082DE9F84372
:1022000000284CD00F466FF00305002949D0044642
:102210000078FA2845D1204699469046FEF72EFFD1
:10222000002841D0064620463146FEF773FF626A19
:1022300006F10C013846FEF768F8B8F1000F1CBF34
:10224000F07888F8000004F10C0700253846314684
:102250003570FFF7FEF9A06818B33846FFF7DCF9D0
:102260000025F0B106462046FFF764FC002101225C
:102270000746FFF721FD3846FFF7BCFC8168626A1C
:10228000074606F10C00FEF740F8F920B5703070F3
:10229000F8683146F0702046FEF710FF01E06FF05D
:1022A00003052846BDE8F883B9F1000F10D083205C
:1022B0004946FFF7E5FC40B1074841692046FFF772
:1022C00042FCEFF30980C0E902786FF00105E8E70E
:1022D0006FF00205E5E700BFAC8F00202DE9F84F55
:1022E000002770B10D4661B105F10F0121F0030621
:1022F0000446B0FA80F0B6FA86F10844202803D2EA
:1023000000273846BDE8F88F06FB04F872B1D2F812
:1023100008A01368D2E90490BAF1000F11D05FEA67
:102320008A71EDD1D1683429EAD30DE000234FF052
:10233000000934490093D1F8A00078B1FFF76CF997
:1023400012E0D1680029DBD1B9F1000F2FD00027AE
:102350004045D6D319F003002BD0D2E7D1F8800046
:1023600034210122FFF7DFF882464FF0010BB9F16B
:10237000000F10D1BAF1000F0DD0224F4146F86F77
:102380000022FFF7D0F8814638B148464146FDF7B4
:10239000D5FF57461AE057461AE0BBF1000F14D09C
:1023A000D7F8A00060B15146FFF753F90DE00028BF
:1023B000A6D1BAF1000FBCD000934FF0000BD6E7C6
:1023C000D7F880005146FFF7E6F800270BF1020B23
:1023D000002F3FF496AF0020C7E90950C7E90B0072
:1023E00000993246C7E90110FA2087F802B0387028
:1023F00007F10C0021464B46FFF750F9014802490E
:1024000001677EE7AC8F0020D31600082DE9F84362
:1024100038B30E466FF00307002951D00546007807
:10242000FA284DD1A86899469046E8B140788328AB
:102430001AD12846FFF77EFB00210122044600271F
:10244000FFF73AFC2046FFF7D5FB044680686A6A2E
:102450003146FDF75AFFE06890B380F8008000270E
:102460002EE06FF003072BE005F10C00FFF7D4F826
:1024700080B16A6A04460C303146FDF746FF0027FA
:10248000F92084F80380A770207028462146FEF7C3
:1024900015FE15E0B9F1000F10D093204946FFF763
:1024A000EFFB40B1084841692846FFF74CFBEFF3CA
:1024B0000980C0E902686FF0010701E06FF00207D0
:1024C0003846BDE8F88300BFAC8F002070B50446E5
:1024D000224845694DB32CB32078F52822D1207EBF
:1024E00030B30E46E178CA0702D0E268AA422BD088
:1024F00066B388070AD5E06895F9201090F9202086
:102500008A4203DA80F82010FFF743FB532031465C
:10251000FFF7B6FB18B120462946FFF714FB6FF012
:10252000010070BD6FF0030070BD4FF0FF3070BD53
:102530000020C4E90350E86A606100B10461012031
:1025400020760020EC6270BDFF2802D16FF00200FF
:1025500070BD01302076002070BD00BFAC8F002020
:1025600070B550B18468D0E900657CB1A10710D185
:10257000C16800201C2917D270BD00250026114912
:10258000D1F8940038B1FFF747F80AE0C068002896
:10259000F5D0002070BDD1F880001C210122FEF78B
:1025A000C2FF044658B101206660E570A070F520B6
:1025B000207004F108001121FDF7C0FE00E00024A6
:1025C000204670BDAC8F002070B504462A48406993
:1025D00070B154B12178F52907D1217E11B1E2689B
:1025E000824209D06FF0020404E06FF0030401E0BE
:1025F0004FF0FF34204670BD01392176090601D025
:102600000024F7E7616909B122690A6100F12C022F
:1026100023691546002B18BF03F114052960E178E2
:1026200089070FD590F8211012684AB193682BB131
:1026300093F920304DB2AB42C8BF19461432F3E7CC
:1026400080F82010A06888B12046FFF773FA0021B7
:10265000002205460026FFF72FFBC4E90356E86A6F
:10266000606100B1046101202076EC62002000244A
:10267000FFF708FABEE700BFAC8F0020B0B508B383
:1026800004460078F6281DD104F10C00D0E85F2F35
:1026900012B9BFF32F8F04E0531EC0E8553F05B1B8
:1026A000F4E710041CBF0020B0BD71B16320FFF738
:1026B000E7FA20B1064841692046FFF744FA6FF077
:1026C0000100B0BD6FF00300B0BD6FF00200B0BDFF
:1026D000AC8F002070B5054601384FF6FE730C46EE
:1026E0000021984298BFAC4201D9084670BD4AB15A
:1026F0009068166870B181070FD1D2680021102A46
:10270000F3D314E000261149D1F8980038B1FEF750
:1027100083FF0AE0D0680028F5D00021E5E7D1F872
:10272000800010210122FEF7FEFE60B1012100228F
:10273000C5818481C0E901628170F621017003497D
:10274000034A8A6600E000200146CEE7AC8F0020F5
:102750001919000810B560B10178F62909D181680E
:1027600059B1FFF7E7F9002101220024FFF7A4FA8D
:1027700001E06FF00304204610BDFEF719FD0024B0
:10278000002808BF6FF00204F5E7000070B5184D8F
:10279000287A02282AD1686A40B36C69E06AFEF799
:1027A000F5FFA06918B100210022FFF785FAEFF3C9
:1027B0000980A063686A8168696211B105F11C0231
:1027C000CA600026C660FFF753FA6E61E078C00762
:1027D00004D12046BDE87040FFF780B90420E660D0
:1027E0006070686BA06000B1C4606C6370BD00BFB6
:1027F000AC8F002010B501460A48406960B100293D
:102800000DD400F1280252E8000F20EA010342E84B
:10281000003404B1F7E710BD4FF0FF3010BD6FF08A
:10282000030010BDAC8F0020B0B56FF0030460B39F
:1028300000292AD405460078F12826D16878042892
:1028400002D16FF0020420E005F1280050E8002FCB
:1028500042EA010440E8004303B1F7E7687833280F
:1028600013D195F82320696A2846FEF7B8FC60B1B9
:10287000014695F823000C4680075CBF686A21EA90
:10288000000428460122FFF717FA2046B0BD0000D9
:10289000F8B505461048476957B1002D0BD40E46D0
:1028A0001446384629463246FEF799FC30B1F8BD49
:1028B0004FF0FF30F8BD6FF00300F8BD4CB133208E
:1028C000214687F823607D62FFF7DAF96FF0010097
:1028D000F8BD6FF00200F8BDAC8F00202DE9FE4F6F
:1028E00018B380466AB102F1100A96689AE8800629
:1028F000D2E90053BEB1B00717D1D068442814D331
:1029000017E001244FF0180A002300274FF00009B8
:102910000025614A0293D2F88800CDE90015C0B1C4
:10292000FEF77AFE1BE0D06818B100242046BDE80F
:10293000FE8F37B10024B9F1000FF7D017F0070070
:10294000F4D1BAF1000F24D0AAF101003728ECD855
:1029500021E0D2F8800044210122FEF7E4FD064682
:102960004FF0010B87B97EB184B14B494B4AD1F886
:102970008400D2F85490C8B1FEF74EFE07460028F6
:1029800018BF0BF1100B17E0344635E04248406F9A
:102990000DE04FF0180AB9F1000F1BD00024B9F177
:1029A000480FC3D319F0070015D0BFE7486F494659
:1029B0000022FEF7B8FD07460FB134461AE05FEA81
:1029C000CB7016D03449D1F8880068B13146FEF793
:1029D00040FE0EE00124002E3FF49BAFCDE9001530
:1029E00002934FF0000BBDE7D1F880003146FEF7AF
:1029F000D2FD00244BF0020B002C3FF497AF01985E
:102A0000182160600298E07040F2F11084F802B082
:102A1000208004F10800FDF791FC07EB090100207C
:102A20004039FD22C4F82300C4F82700C4F82B0065
:102A300084F82F0084F8222084F821A084F820A0B4
:102A4000C4E90C79C4E90E181549009D3960134991
:102A5000097849070AD56FF0100101EB99013A1D79
:102A60004FF0CC3311B108C20139FBE7A16B002252
:102A70000D2A03D041F822000132F9E7094A4FF04C
:102A80008070C1E90D28C8630D62034806490166DC
:102A90002046FEF7F7FF49E7AC8F002020830108AE
:102AA000A52E5AE2B11E0008B91B0008B0B50C48AB
:102AB000017A022911D1446A7CB1456994F8201049
:102AC00095F82000814208D12046FFF752F82846A9
:102AD000FFF786F82046FFF7CBF80020B0BD00BF17
:102AE000AC8F0020F8B50E46002198B3012E31D8E6
:102AF000144605464BB198681F6870B181070FD125
:102B0000DA680021202A15D224E000271249D1F8E2
:102B10008C0038B1FEF780FD0AE0D8680028F5D0B7
:102B2000002117E0D1F8800020210122FEF7FBFCF4
:102B300070B101210022C67081704FF4F9710180DB
:102B4000C0E90172C0E90322C0E90525C46100E0C3
:102B5000002001460846F8BDAC8F0020B0B570B12A
:102B60000C4605466FF00300B9B12978F22914D15B
:102B70006878022806D12846FEF78CFB08E06FF043
:102B80000300B0BD0748006D40B102206C61687061
:102B900028462146FEF75AFB0020B0BD6FF0020028
:102BA000B0BD00BFAC8F00207FB500241148009459
:102BB000019402940E490394C0E9001484600461F6
:102BC000047680F820400125C4624562C561C46076
:102BD00080F83040456100F0B8FF0320CDE90005E2
:102BE00069460294034800F0FBFE04B0002070BD6B
:102BF00000200140A4950020464910B54A6822F4FF
:102C000040324A604A6843681A434A6001684A6829
:102C100022F480724A6001684A68036942EA03222A
:102C20004A6001684A6822F040724A6001684A6856
:102C300083681A434A6001688A6822F400628A60E5
:102C400001688A68C3681A438A60816A6FF070629B
:102C5000D14201688A6822F070628A6001688A68DD
:102C60000CD0836A1A438A6001688A6822F0405255
:102C70008A6001688A68C36A1A4301E022F0405200
:102C80008A6001688A6822F002028A6001688A68A4
:102C9000037E42EA43028A6090F82010002901680E
:102CA0004A680FD042F400624A6001684A6822F420
:102CB00060424A6001684A68174C436A04EB433338
:102CC0001A4301E022F400624A600168CA6A22F4F1
:102CD0007002CA620168CA6A838B104C04EB03530A
:102CE0001A43CA6201688A6822F400728A60016825
:102CF0008A6890F8303042EA43228A6001688A6824
:102D000022F480628A6001688A68406942EA802011
:102D1000886010BD0023014000E0FFFF0000F0FFCD
:102D200010B501004FF0000001D108F095FF80B20E
:102D300010BD00001CB522A1234DD1E900010024E3
:102D4000CDE900010120214E214F287049F640486D
:102D5000E94600BF19F8040003F06CFD641C062C62
:102D600000D3002408F08AFF10EE100AB04207DDFD
:102D700006F09AFD06F0A4FD404607F045F915E07F
:102D800008F07CFF10EE100AB84208DD404607F05C
:102D900047F9404607F038F906F086FD06E006F0F0
:102DA00089FD06F08DFD404607F022F96420FEF70C
:102DB00085FA0CF023F928780028D3D0CAE7000060
:102DC0000103060406030000408E00200000F041CD
:102DD0000000C841FEE700002DE9F0413F4B1A79A1
:102DE00094074FF0FF324DD53D4D3E4C012834D075
:102DF000022822D0032812D0042808D005280CD09D
:102E0000062802D0101FBDE8F081E16105E08807C7
:102E100003D5A86940F48010A8610020F3E720687A
:102E200020F00406A86920F0020799B108F072FEAC
:102E300046F0040647F002070CE0206820F0080680
:102E4000A86920F4005729B108F064FE46F008068E
:102E500047F400572660AF61DFE7206811F00306F2
:102E600020F4B84004D0012E05D06FF00300CAE76B
:102E700040F4006001E040F4804011F0040605D009
:102E8000042E01D01046BEE740F40060CA0601D50A
:102E900040F48050AA698E0622F0087203D540F4EF
:102EA000806042F000724E0603D542F40012012603
:102EB00000E00026DE71AA61206060680A0620F04A
:102EC000310001D440F02000CA0501D540F01000C7
:102ED000890501D540F0010060609EE7F898002068
:102EE00000900240008002404FF0FF307047000029
:102EF00001681823CAB2103AB2FBF3F2054B6FF324
:102F00000901032A9B5CC36500D9091D8165084638
:102F1000704700004C7B010810B5014600208B690A
:102F20008A6A4FF0C07453B1B3F5005F15D072B127
:102F3000012A0CD0022A0AD0032A09D104E01AB1CE
:102F4000012A06D0022A03D1C96AC90100D501208D
:102F500010BDC96AA142FAD010BD002AF7D0012ADB
:102F6000F2D0022AF3D0032AF3D010BD30B50468A2
:102F7000256825F480252560046863608368402BFC
:102F8000036803D099600068C26030BD9A60006831
:102F9000C16030BD70470000034900224A624A6A9E
:102FA0008242FCD37047000000100040174A1849C5
:102FB000904203D1086820F4805016E0144A154B63
:102FC000121F984203D1106820F4804005E0124B94
:102FD000984204D1106820F40040106070470F4AF6
:102FE000904204D1086820F40050086070470C4AF1
:102FF000904203D1086820F48010F6E7094A904215
:10300000F4D1086820F40010EFE700000030014020
:103010004438024000380040003C00400034014089
:10302000005001400054014000F0FAFB03F046FB61
:1030300008F004FE26A1294805F054FF274828A1DE
:103040001530044605F04EFF244806F0E1FB4FF42E
:103050007A70FEF733F91023224A0321180109F090
:103060008DFB204A20A1103202F1280005F03AFF22
:1030700020A11A4805F036FF1A4A282310321949B0
:10308000002009F0FDFB02461DA1204605F02AFFA5
:10309000124806F0BDFB114C4A3C6422002101207D
:1030A000FEF74AFF01280FD108F0C8FD0B4806F0D3
:1030B000AFFB0C4813A1383005F014FF01466060E7
:1030C000084838300CF008FB0BF098FFE5E70000EB
:1030D0005374617274696E672E2E2E008A8E0020E2
:1030E0004E6F7700509000204950343A252D3136EC
:1030F00073000000495020616464726573733A0084
:10310000257300000D536520657363726962652045
:10311000656E2070616E74616C6C610A0000000065
:103120000D4A002051690D4B0B405361CA0700D076
:103130000220490601D540F0010009498A6B1207B7
:1031400002D5C96A40F00400002804D00549096886
:10315000002900D00847704700900240410001005C
:1031600000800240F89800203D4A08B53D49904251
:1031700007D1086840F001000860086800F001000D
:1031800009E0394A904208D1086840F0020008601E
:10319000086800F00200009008BD344A904207D150
:1031A000086840F004000860086800F00400F2E7D6
:1031B0002F4A904207D1086840F00800086008686C
:1031C00000F00800E7E72B4A904207D1086840F07A
:1031D00010000860086800F01000DCE7264A904202
:1031E00007D1086840F020000860086800F020005F
:1031F000D1E7224A904207D1086840F040000860B9
:10320000086800F04000C6E71D4A904207D10868F0
:1032100040F080000860086800F08000BBE7194AB1
:10322000904207D1086840F480700860086800F494
:103230008070B0E7144A904207D1086840F40070EB
:103240000860086800F40070A5E7104A9042A3D116
:10325000086840F480600860086800F480609AE7BD
:1032600000000240303802400004024000080240E2
:10327000000C0240001002400014024000180240FE
:10328000001C0240002002400024024000280240AE
:103290003D4A08B53D49904207D1086840F0010019
:1032A0000860086800F0010009E0394A904208D13E
:1032B000086840F002000860086800F00200009012
:1032C00008BD344A904207D1086840F00400086005
:1032D000086800F00400F2E72F4A904207D108681E
:1032E00040F008000860086800F00800E7E72B4A93
:1032F000904207D1086840F010000860086800F0AC
:103300001000DCE7264A904207D1086840F0200010
:103310000860086800F02000D1E7224A904207D1F7
:10332000086840F040000860086800F04000C6E708
:103330001D4A904207D1086840F080000860086884
:1033400000F08000BBE7194A904207D1086840F4BA
:1033500080700860086800F48070B0E7144A9042FA
:1033600007D1086840F400700860086800F4007035
:10337000A5E7104A9042A3D1086840F48060086035
:10338000086800F480609AE700000240303802408C
:103390000004024000080240000C024000100240FD
:1033A0000014024000180240001C024000200240AD
:1033B00000240240002802403D4A08B53D499042A1
:1033C00007D1086840F001000860086800F00100BB
:1033D00009E0394A904208D1086840F002000860CC
:1033E000086800F00200009008BD344A904207D1FE
:1033F000086840F004000860086800F00400F2E784
:103400002F4A904207D1086840F008000860086819
:1034100000F00800E7E72B4A904207D1086840F027
:1034200010000860086800F01000DCE7264A9042AF
:1034300007D1086840F020000860086800F020000C
:10344000D1E7224A904207D1086840F04000086066
:10345000086800F04000C6E71D4A904207D108689E
:1034600040F080000860086800F08000BBE7194A5F
:10347000904207D1086840F480700860086800F442
:103480008070B0E7144A904207D1086840F4007099
:103490000860086800F40070A5E7104A9042A3D1C4
:1034A000086840F480600860086800F480609AE76B
:1034B0000000024030380240000402400008024090
:1034C000000C0240001002400014024000180240AC
:1034D000001C02400020024000240240002802405C
:1034E0002DE9F843DFF8DC80374FDFF8E0C0384ED5
:1034F000384D394C394B3A4ADFF8E8903A49404563
:1035000007D1086840F001000860086800F0010079
:1035100054E0B84208D10F6847F002070F600F6807
:1035200007F0020700970AE0604508D10E6846F0F0
:1035300004060E600E6806F0040600960AE0B0422B
:1035400008D10D6845F008050D600D6805F0080507
:1035500000950AE0A84208D10C6844F010040C6001
:103560000C6804F0100400940AE0A04208D10B6833
:1035700043F020030B600B6803F0200300930AE084
:10358000984208D10A6842F040020A600A6802F0D4
:103590004002009209E0904207D1086840F08000A4
:1035A0000860086800F0800008E0484507D1086816
:1035B00040F480700860086800F480700090BDE8F6
:1035C000F8830000000002400004024000080240AE
:1035D000000C02400010024000140240001802409B
:1035E000001C02400020024030380240234A08B547
:1035F0002349904207D1086840F480500860086869
:1036000000F480500BE01E4A1E4B121F984208D156
:10361000106840F480401060106800F48040009012
:1036200008BD194B984207D1106840F40040106063
:10363000106800F40040F2E7144A904207D108688D
:1036400040F400500860086800F40050E7E7104AB2
:10365000904207D1086840F480100860086800F4C0
:103660008010DCE70B4A9042DAD1086840F4001081
:103670000860086800F40010D1E700000030014045
:103680004438024000380040003C00400034014013
:1036900000500140005401409AB020B1012804D0EC
:1036A000022804D007E004A102E012A100E021A159
:1036B000684605F017FCFEE70D2053652068612081
:1036C00070726F64756369646F20756E20657272C5
:1036D0006F7220616C20696E696369616C697A61DF
:1036E00072206C61206C6962726572ED61204841E4
:1036F0004C0A00000D2053652068612070726F64D1
:10370000756369646F20756E206572726F722061D7
:103710006C20696E696369616C697A617220656C9D
:103720002072656C6F6A2064656C207369737465C0
:103730006D610A000D2053652068612070726F640E
:10374000756369646F20756E206572726F72206197
:103750006C20696E696369616C697A617220656C5D
:10376000205761746368646F670A0000F0B5DFF882
:1037700048C09CF80020732A1CD8203800EBC001F8
:1037800001EB001081B20D4C0D4BACF80410002081
:1037900001EB4005254487186E78AD78DE55FE189C
:1037A000401CC0B286F880500C28F1D3605C1044F5
:1037B0008CF800000020F0BDC88E0020606F01086A
:1037C0002C960020F0B5DFF84CC0BCF80220B2F512
:1037D000BA7F1DD2203800EBC00101EB001081B28E
:1037E0000D4C0E4BACF80410002000BF01EB40055F
:1037F000254487186E78AD78DE55FE18401CC0B29F
:1038000086F880500C28F1D3605C1044ACF80200BC
:103810000020F0BDC88E0020606F01082C960020AB
:103820002DE9F04186B014216846FCF787FD274852
:103830000024016841F001010160016801F001010B
:103840000591016841F020010160016801F020014B
:103850000591016841F00801016000681C4D00F00D
:1038600008000590A9880122286800F066FDA5F1EE
:103870001006B1880122306800F05FFDA5F108074D
:10388000B9880122386800F058FDA8884FF0010877
:103890000090CDE9018403946946286800F05EFC3D
:1038A000B0880090CDE9018403946946306800F047
:1038B00055FCB8880090CDE90184039469463868C6
:1038C00000F04CFC06B0BDE8F0810000303802404A
:1038D000E88E0020014840687047000048790108E0
:1038E00038B50020ADF800000B48817A890704D56F
:1038F0001F2103686A4600209847BDF8000040F386
:103900008001491C61F30104C00602D544F00400A3
:1039100038BD24F0040038BDEC98002008B5002024
:10392000ADF800000648817A890704D501210368B3
:103930006A4600209847BDF80000C0F3800008BD2B
:10394000EC98002030B10C490979890705D44FF073
:10395000FF3070476FF004007047084A116C0B0A83
:1039600043710171516C0A0EC2700A0C82700A0A0E
:103970004270017000207047F898002000800240DB
:103980000D4901F10C02887902EB401000680979B9
:10399000890701D5002801DA00207047010403D40B
:1039A000810501D5C10502D44FF0FF307047C0F347
:1039B0000D40001F70470000F89800204FF0FF30C6
:1039C00070474FF0FF3070470148006870470000B3
:1039D000247901080148006870470000487901080F
:1039E00078B50024009490F83C20012A19D00122D7
:1039F00080F83C200A6807230568092A13D9EE6875
:103A00000A3A02EB420293409E43EE600B788A68CA
:103A10000A3B03EB43039A400368DD682A43DA60FC
:103A200010E0022078BD2E6902EB420293409E43D3
:103A30002E610B788A6803EB43039A4003681D6983
:103A40002A431A614A681F23072A13D205686E6B3E
:103A5000521E02EB820293409E436E630A8893B229
:103A60000A79521E02EB820293400268556B2B4387
:103A7000536327E005680D2A12D22E6BD21F02EB8A
:103A8000820293409E432E630B790A88DB1F92B219
:103A900003EB83039A4003681D6B2A431A6311E00A
:103AA000EE6A0D3A02EB820293409E43EE620B797E
:103AB0000A880D3B92B203EB83039A400368DD6AE8
:103AC0002A43DA621B4B0568194A9D420AD10D68E8
:103AD000122D07D1556825F400055560556845F449
:103AE0008005556005689D421DD1134D0B68AB42A2
:103AF00001D0112B17D1536823F48003536053680E
:103B000043F4000353600968A9420CD10B490C4AE5
:103B10000968B1FBF2F101EB8101490000E0491EA7
:103B200000910029FBD180F83C40002078BD0000C6
:103B30000023014000200140120000106C8F002083
:103B400040420F000068C06C704770B504004FF031
:103B5000000503D0206C002610B107E0012070BDE5
:103B6000204600F01DF8666484F83C60206CC006B6
:103B700010D4206C20F4885040F0020020642046CD
:103B8000FFF73AF86664206C20F0020040F0010074
:103B9000206400E0012584F83C60284670BD0000E8
:103BA00030B587B0044614216846FCF7C7FB1949B5
:103BB000206888422CD118480024016841F48071A3
:103BC0000160006800F480700590134814380168A3
:103BD00041F004010160016801F0040105910168F0
:103BE00041F0010101600068032500F0010005902B
:103BF0000120CDE9000569460294084800F0AEFABC
:103C00000820CDE9000569460294054800F0A6FAAF
:103C100007B030BD00200140443802400008024097
:103C2000000002402DE9F041044600680D4681681D
:103C30004FF0000749050BD58068C00508D5206CFA
:103C400040F02000206484F83C700120BDE8F08141
:103C500000F078FB06460FE0681C0DD025B100F09F
:103C600071FB801BA84207D9206C40F0040020643F
:103C700084F83C700320E9E7206800688007EBD5F2
:103C800021686FF012000860206C40F4007020641E
:103C90002068816811F0405F13D1217E89B9C16A23
:103CA00011F4700F02D0806840050AD4206C20F413
:103CB00080702064206CC00403D4206C40F00100AC
:103CC00020640020C2E7000018B50021009190F8A0
:103CD0003C20012A07D0012280F83C20026893682A
:103CE000DB0702D011E0022018BD936843F0010306
:103CF00093602A4A2A4B1268B2FBF3F202EB4202AB
:103D000000E0521E0092002AFBD102689368DB0794
:103D100041D0036C40F20164A34343F48073036415
:103D200053685B0505D5036C23F4005343F48053BB
:103D30000364036CDB0404D5436C23F00603436483
:103D400000E0416480F83C1016496FF022031360D4
:103D500049680068CA06144906D088421BD18168A8
:103D600011F0405F13D016E08842F8D00F4A90421D
:103D700003D1D1F80423D206F1D00D4A90420AD1E2
:103D8000D1F8041301F01F011029E8D303E0816882
:103D900041F080418160002018BD00006C8F002040
:103DA00040420F000023014000200140002101405B
:103DB000002201402DE9F0410446876D00F0C2FA6F
:103DC000064694F835000025022806D0802060655C
:103DD00084F834500120BDE8F0812068016821F0AA
:103DE000160101602068416921F080014161206C69
:103DF00008B9A06C20B12068016821F008010160B9
:103E00002068016821F0010101600BE000F09AFADE
:103E1000801B052806D92020606504F8345F032044
:103E20006070D8E720680068C007EFD194F85C1094
:103E30003F208840B86004F8345F012060700020A3
:103E4000C9E790F83510022903D08021416501208F
:103E50007047052180F835100068016821F00101E4
:103E600001600020704700002DE9F041044600F099
:103E700069FA06465CB1002584F83450022084F8C3
:103E800035002068016821F0010101600DE001208A
:103E9000BDE8F08100F056FA801B052805D92020E6
:103EA0006065032084F83500F2E720680068C007E9
:103EB000F0D12268116820480140D4E90103184379
:103EC000D4E903363343184363691843A36918439D
:103ED000E3691843236A18430843616A042903D13C
:103EE000D4E90B1319430843106020684069666ADF
:103EF00020F0070130460E43012704280CD1A06AA8
:103F00000643E06A40B12046FFF706F820B14020A2
:103F1000606584F83570BAE7206846612046FEF790
:103F2000E7FF94F85C203F2191408160656584F84B
:103F300035700020ACE700003F8010F02DE9F04123
:103F40000446866D90F83400002501280DD001202C
:103F500084F8340094F835700020012F07D084F8DD
:103F6000340002252846BDE8F0810220FBE7022745
:103F700084F8357060652046FEF7F8FF94F85C1011
:103F80003F208840B0602068016841F01601016060
:103F9000206C20B12068016841F0080101602068B0
:103FA000016841F001010160DCE7000070B50446E2
:103FB00000F0C8F90546601C02D0044800780444AB
:103FC00000F0C0F9401BA042FAD370BD608F002002
:103FD0002DE9F04F0022DFF854B101264FF00F0910
:103FE00006FA02F401EA0403A3427DD122F003079A
:103FF0005F44D7F808C895074FEA157809FA08FA18
:104000000AEA0C05DFF828C1604502D14FF0000C28
:1040100040E0DFF820C1604502D14FF0010C39E0EB
:10402000DFF814C1604502D14FF0020C32E0DFF836
:104030000CC1604502D14FF0030C2BE0DFF800C14A
:10404000604502D14FF0040C24E0DFF8F8C0604571
:1040500002D14FF0050C1DE0DFF8ECC0604502D145
:104060004FF0060C16E0DFF8E4C0604502D14FF0D7
:10407000070C0FE0DFF8D8C0604502D14FF0080C04
:1040800008E0DFF8D0C0604502D14FF0090C01E034
:104090004FF00A0C0CFA08FCAC4522D12E4DD5F895
:1040A00000C02CEA030CC5F800C005F1040CDCF8D4
:1040B00000509D43CCF800500CF10405D5F800C029
:1040C0002CEA030CC5F800C02D1DD5F800C02CEA61
:1040D000030CC5F800C0D7F8085825EA0A05C7F848
:1040E00008580568570000E01AE00323BB409D43D1
:1040F0000560D50800EB8505D5F820C057074FEAC5
:10410000D76809FA08F72CEA070CC5F820C0C5687B
:104110009D43C5604568A543456084689C438460B1
:10412000521C102AFFF45CAFBDE8F08F0030014054
:10413000000002400004024000080240000C02405F
:10414000001002400014024000180240001C02400F
:104150000020024000240240003C01402DE9F84FBD
:1041600000224FF0010803254FF00F0E0B6808FAEC
:1041700002F42340A3426ED14E68012E05D0022ED8
:1041800003D0112E01D0122E12D186684FEA420CB4
:1041900005FA0CF7BE43CF6807FA0CF73743876080
:1041A0004668A6430C79C4F3001494403443446039
:1041B000C668570005FA07FC8C6826EA0C06BC4066
:1041C0003443C4604C68022C01D0122C13D1D408A3
:1041D00000EB8404A346D4F8209054074FEAD46A35
:1041E0000EFA0AF629EA06090E6906FA0AF646EAFE
:1041F0000906CBF8206004680E7924EA0C0406F066
:104200000306BE40264306604C68E4006FD53B4C75
:10421000266846F480462660246822F0030604F4EB
:1042200080440094364C3444A446D4F80848960799
:10423000360F0EFA06F7BC43324FB84201D10027C1
:104240002EE0314FB84201D1012729E02F4FB8426B
:1042500002D1022724E04AE02D4FB84201D10327C2
:104260001EE02C4FB84201D1042719E02A4FB84272
:1042700001D1052714E0294FB84201D106270FE0EC
:10428000274FB84201D107270AE0264FB84201D193
:10429000082705E0244FB84201D1092700E00A278A
:1042A000B7402743CCF80878204E34684F689C43C9
:1042B000FF0300D51C4334601C4E361D34684F6824
:1042C0009C43BF0300D51C433460184E0836346845
:1042D0004F689C43FF0200D51C433460134E0C36DC
:1042E00034684F689C43BF0200D51C433460521CA5
:1042F000102AFFF43BAFBDE8F88F000044380240BD
:10430000003001400000024000040240000802406A
:10431000000C02400010024000140240001802404D
:10432000001C02400020024000240240003C0140EA
:104330000069084000D0012070470AB181617047D0
:104340000904FBE710B5FCF7CBFF022816D00D4897
:104350000068800B0DD000BF00BF00BF00BF00BFD2
:1043600000BF00BF00BF00BF00BF00BF00BF401EB6
:10437000F1D105490868401C086010BDBDE8104037
:10438000FCF7C6BF6C8F0020C08E002070B5040003
:1043900011D021684CF6CC400860216845F2555098
:1043A0000860D4E9000141602168A0688860FFF7D7
:1043B000C9FF054609E0012070BD00BFFFF7C2FF3D
:1043C000401B302801D9032070BD2068C068002838
:1043D000F4D121684AF6AA200860002070BD006868
:1043E0004AF6AA210160002070470000094810B574
:1043F000016841F400710160016841F4806101606D
:10440000032000F075F80F2000F006F800F024F803
:10441000002010BD003C024070B50D4D04464FF425
:104420007A712878B1FBF0F00A490968B1FBF0F025
:1044300000F05DFE48B9102C07D200222146501E24
:1044400000F036F800206C6070BD012070BD0000E7
:10445000608F00206C8F00207047002809DB00F07F
:104460001F02012191404009800000F1E020C0F8C6
:104470008012704700280DDB00F01F0201219140DF
:104480004009800000F1E020C0F88011BFF34F8F99
:10449000BFF36F8F7047002809DB00F01F02012176
:1044A00091404009800000F1E020C0F80011704701
:1044B000F0B40E4B1B680C46C3F30223C3F107058F
:1044C000042D00D90425191D072901D2002300E07D
:1044D000DB1E012606FA05F1491E214099409E4047
:1044E000761E16403143F0BC04F010BD0CED00E028
:1044F000064900F0070208684FF6FF03184040EA3B
:104500000220034A10430860704700000CED00E0F1
:104510000000FA052DE9F8431748016841F0805181
:1045200001600068154F00F08050012600903E6445
:10453000FFF708FF05464FF47A78114C05E000BFFD
:10454000FFF700FF401B40450DD86068C003F7D55A
:104550007E64FFF7F7FE0546464607E0FFF7F2FEEA
:10456000401BB04202D90320BDE8F8836068800395
:10457000F4D50020F8E700004038024000000E4269
:1045800000700040014901200862704700000E429F
:104590002DE9F84F04460068DFF824A2894F8A4DC0
:1045A000C1074FF001084FF0000603D1810701D485
:1045B000400648D5CAF86860FFF7C4FE814605E0AA
:1045C000FFF7C0FEA0EB090002287DD82868000193
:1045D000F6D42078C1077D4805D06168227A890128
:1045E00041EA027101602178890711D5016862688A
:1045F000237B9201C1F3027142EA036242EA017134
:1046000001603968E26921F01F01521E11433960CF
:104610002178490608D56168227B890141EA026157
:10462000227A41EA02710160CAF86880FFF78AFEC7
:10463000814605E0FFF786FEA0EB0900022843D87B
:1046400028680001F6D52068410701D400074ED53F
:10465000CAF87060FFF776FE814605E0FFF772FE4C
:10466000A0EB090002282FD82868C0438000F5D5A8
:1046700020784107564814D501682269237D9201AC
:10468000C1F3027142EA036242EA017101603968D2
:10469000226A6FF0FF0321F4F85103EB0222114369
:1046A00039602178090712D501682269C1F30361D5
:1046B000920142EA0161227E41EA0271016038689A
:1046C000616A20F4403000E051E008433860CAF8E5
:1046D0007080FFF737FE074605E000BFFFF732FEA8
:1046E000C01B022843D82868C0438000F6D4207835
:1046F000800653D534484030016841F08051016054
:104700000068344D00F080500090286840F48070BC
:104710002860FFF717FE074605E000BFFFF712FE0F
:10472000C01B022823D82868C005F7D5274D143DA3
:10473000286810F4407020D0218D01F4407181422E
:104740001BD0286820F440712348C0F80080066020
:1047500029602868C00710D0FFF7F4FD064641F233
:10476000883707E0FFF7EEFD801BB84202D903202F
:10477000BDE8F88F28688007F4D5A16A1248C1F314
:1047800001220830032A13D0016821F4F8110160D6
:104790002868218DC1F30B01084328602078C006EA
:1047A00004D50E4994F82C00C1F8E0010020DFE7A1
:1047B00002680B4B22F4F81219400A430260E7E743
:1047C000000047428C3802400038024084380240E2
:1047D0008838024000700040400E474200104742B7
:1047E000FFFCFF0F2DE9F0470E46050065D0DFF80E
:1047F0001481D8F80000F7B200F00F00B04207D2E1
:1048000088F80070D8F8000000F00F00B04254D1D2
:1048100028683D4C810712D5400703D5206840F435
:10482000E05020602878000703D5206840F46040FD
:1048300020602068A96820F0F000084320602878F4
:10484000C0072DD0304968680839012812D00228E5
:1048500013D0032811D00968890700292DDA2168AF
:1048600021F0030101432160FFF76CFD814641F215
:10487000883A0EE009688903EFE709688901ECE7E7
:10488000FFF760FDA0EB0901514502D90320BDE807
:10489000F0872068696800F00C00B0EB810FEFD161
:1048A000D8F80010404601F00F01B14207D9077057
:1048B000006800F00F00B04201D00120E7E728783F
:1048C000400705D52068E96820F4E05008432060DF
:1048D0002878000706D52068296920F4604040EA5E
:1048E000C100206000F03EF82168084AC1F30311BE
:1048F000515CC8400649086006480068FFF78CFD17
:104900000020C4E7003C024008380240547B010804
:104910006C8F0020648F0020014800687047000001
:104920006C8F00200448054900680968044AC1F3F7
:104930008221515CC84070476C8F002008380240CB
:10494000647B01080448054900680968044AC1F30A
:104950004231515CC84070476C8F002008380240DB
:10496000647B0108154810B5006810F00C0214486B
:1049700013D01449042A0FD0082A0ED10F4C241F3B
:104980002268236802F03F025B0207D52068C0F36B
:104990008810A0FB010106E0084610BD2168C1F3A4
:1049A0008811A1FB00010023FBF77EFC2168C1F305
:1049B0000141491C4900B0FBF1F010BD083802402C
:1049C0000024F40040787D012DE9F84F04006ED0FA
:1049D0002078DFF83C93C007A9F104054AD009F11B
:1049E00004000168C1F38101012908D00068C0F307
:1049F000810002280AD1D9F80000400206D52868B3
:104A0000800337D560680028E1D033E06068B0F5F6
:104A1000803F10D0B0F5A02F286810D020F480304F
:104A20002860286820F4802028606068A8B1FFF71B
:104A300089FC06460DE0286840F48030F4E740F435
:104A400080202860F7E700BFFFF77CFC801B64280C
:104A500073D828688003F7D50CE0FFF773FC06468F
:104A600005E000BFFFF76EFC801B6428F0D82868C3
:104A70008003F7D42078DFF89C8280074FF0000A8B
:104A80003ED5A348001D016811F00C0F08D0006846
:104A9000C0F3810002280BD1D9F80000400207D4EE
:104AA0002868800716D5E068012800D112E02BE1C4
:104AB000E068B8B10120C8F80000FFF743FC0646E3
:104AC00005E000BFFFF73EFC801B0228C0D8286825
:104AD0008007F7D52868216920F0F80040EAC10076
:104AE00028600DE0C8F800A0FFF72CFC064604E0A3
:104AF000FFF728FC801B02281FD828688007F7D4FE
:104B00002078000722D5824E83486169703671B1E2
:104B100001210160FFF716FC074604E0FFF712FCD5
:104B2000C01B022809D830688007F7D50EE0C0F80E
:104B300000A0FFF707FC074605E082E0FFF702FC54
:104B4000C01B02287DD830688007F7D42078400742
:104B500068D5DFF8BCB100270BF13C0BDBF8000097
:104B6000C0000BD4DBF8001041F08051CBF80010EE
:104B7000DBF80000012700F080500090674E30689D
:104B8000C00510D4306840F480703060FFF7DAFB65
:104B9000009005E0FFF7D6FB0099401A022850D894
:104BA0003068C005F6D55A4EA0686C3601280FD083
:104BB0000528306810D020F001003060306820F007
:104BC00004003060A068B8B1FFF7BCFB00900FE0B4
:104BD000306840F00100F4E740F004003060F7E78F
:104BE000FFF7B0FB0099411A41F28830814266D844
:104BF00030688007F4D50EE0FFF7A4FB009007E0D3
:104C0000FFF7A0FB0099411A41F28830814256D843
:104C100030688007F4D42FB1DBF8001021F0805108
:104C2000CBF80010A069C8B33949091D0968C1F360
:104C3000810102294AD00228504607D0C8F86000F6
:104C400000E03CE0FFF77EFB04463BE04746C8F847
:104C50006000FFF777FB064605E000BFFFF772FB39
:104C6000801B02282BD828688001F7D4D4E90701DB
:104C70000843A16A2A4A490802EB0141626A41EAF3
:104C80008211084394F82C1040EA0161C9F8001021
:104C900001203866FFF756FB044606E036E000BF09
:104CA000FFF750FB001B022809D828688001F7D5C0
:104CB0002CE000BFFFF746FB001B022802D90320AF
:104CC000BDE8F88F28688001F4D41FE00128F7D0F0
:104CD000D9F80000E26900F48001914214D1226AFF
:104CE00000F03F0191420FD147F6C071626A014066
:104CF000914209D1A26A00F44031914204D1E16AA3
:104D000000F07060884201D00120D9E70020D7E789
:104D10000438024000004742800E474200700040C5
:104D20000000FFFF10B5027F012A1FD00122027789
:104D3000022343770468CA236362046853236362CF
:104D400003689C6824F400249C6003689C680C43FE
:104D50009C6001688B6843F400038B600368FF214B
:104D60005962427700210177084610BD022010BD2C
:104D700010B500680B4641680D480140080CD8701A
:104D8000C1F304245C7001F03F049C70C1F3423114
:104D9000197052B901F016FFD870587801F012FF5F
:104DA0005870987801F00EFF9870002010BD000038
:104DB0003FFFFF0010B50B460168896A5960016822
:104DC0000969C1F30E019960006801680E4801404D
:104DD000C1F305401870C1F306245C7001F07F0434
:104DE0009C70402404EA1141D97052B901F0EAFEE6
:104DF0001870587801F0E6FE5870987801F0E2FEDD
:104E00009870002010BD00007F7F7F0070B5040007
:104E100002D0607F10B106E0012070BD0020207735
:104E2000204600F049F8022060772168CA204862D5
:104E3000216853204862204601F0D8FEFF25042651
:104E400018BB206881681B4A11408160216888680E
:104E500062681043D4E904231A4310438860216830
:104E6000E068086120680169228941EA0241016124
:104E70002068C16821F08001C160206880688006D8
:104E800007D4204600F018F918B12068456266770B
:104E9000C2E72068016C21F4802101642068016C64
:104EA000A2691143016420684562012060770020F7
:104EB00070BD0000BFFF8FFF10B510489AB00024EE
:104EC000016841F080510160006800F08050189046
:104ED000FFF758FB042006940090012468460294D2
:104EE000FFF772FD20200C90C00016900CA8FFF771
:104EF0004FFB034804601AB010BD00004038024068
:104F00003C0E47422DE9F0470446007F0B4601283E
:104F10001FD04FF0010984F81C9002206077DAB1AD
:104F20009878D97840EA014558781978000240EA23
:104F3000413005432168CA204862216853204862F5
:104F4000204601F053FE0026FF274FF0040860BB07
:104F50001AE00220BDE8F0875878C10603D500F0BA
:104F6000EF000A305870D87801F035FE0204587806
:104F700001F031FE42EA0022987801F02CFE024353
:104F8000187842EA4035D5E70F480540206845606B
:104F90002068C16821F08001C160206880688006B7
:104FA0000AD4204600F088F830B12068476284F8BF
:104FB0001D8026770120CDE72068476284F81D9088
:104FC00026770020C6E700003FFFFF002DE9F047ED
:104FD0000446007F0D46012827D04FF0010A84F8CF
:104FE0001CA0022060772068002680684FEA40609D
:104FF000F2B1002800DBEE70A878297840EA01477A
:105000006878E978000240EA014007432168CA2035
:105010004862216853204862204601F0E7FD4FF0C6
:10502000FF084FF00409A0BB16E00220BDE8F0879E
:10503000002800DBEE70287801F0CDFD02046878CE
:1050400001F0C9FD42EA0022A87801F0C4FD024344
:10505000E87842EA0047D9E7164807402068076029
:105060002068816821F480218160D5E9030108432B
:1050700021688A68104388602068C16821F0800137
:10508000C1602068806880060BD4204600F014F8C8
:1050900038B12168C1F8248084F81D90267701205A
:1050A000C4E72168C1F8248084F81DA02677002079
:1050B000BCE700007F7F7F0070B504460068C168D0
:1050C00021F0A001C160FFF73DF905464FF47A7663
:1050D00007E000BFFFF736F9401BB04201D90320BB
:1050E00070BD2068C0688006F4D5002070BD10B582
:1050F000401EB0F1807F01D3012010BD4FF0E024AD
:1051000060610F21601703F001FF0020A0610720FC
:105110002061002010BD10B590F83C20012A22D05B
:10512000012280F83C20CA688C6822F44072224335
:105130004C6822F4806222430C6822F4006222430D
:105140000C6922F4805222434C6922F4005222431B
:10515000C969002322F480420A4301684A6480F846
:105160003C30002010BD022010BD000070B590F84A
:105170003C20012A32D0012480F83C40022280F8F1
:105180003D2003685A689D6822F070060A68324321
:105190005A60134B02689A4214D0B2F1804F11D07A
:1051A000104B9A420ED0104B9A420BD00F4B9A42A2
:1051B00008D00F4B9A4205D00E4B9A4202D00E4BAC
:1051C0009A4204D1496825F080031943916080F820
:1051D0003D40002180F83C10084670BD022070BDA3
:1051E000000001400004004000080040000C0040A6
:1051F00000040140004001400018004010B50400C8
:1052000003D094F83D0010B107E0012010BD00204C
:1052100084F83C00204600F00DF8022084F83D00A0
:10522000211D206802F0AAFC012084F83D00002026
:1052300010BD000008B5134B026813499A4207D10C
:105240000A6842F010020A600A6802F01002009236
:1052500000680E4A904209D10B48001D016841F0D8
:1052600001010160006800F0010009E0084A904275
:1052700007D1086840F004000860086800F00400E6
:10528000009008BD0010004040380240000001407E
:1052900000080040022180F83D1001688A6802F091
:1052A0000702062A03D00A6842F001020A600121BF
:1052B00080F83D100020704770B5044690F83C001F
:1052C000012817D0012584F83C50022084F83D00C5
:1052D0002068826822F0770222F47F4282600868A8
:1052E000502830D00DDC20284DD005DC98B3102894
:1052F0003BD148E0022070BD302844D0402834D152
:1053000039E0602828D0702806D0B0F5805F2CD016
:10531000B0F5005F29D10AE0CB68D1E9012120680E
:1053200002F09DFC2068816841F0770109E0CB68BC
:10533000D1E90121206802F092FC2068816841F4E3
:105340008041816011E0CA684968206802F05CFD14
:105350005021206807E016E0CA684968206802F01A
:1053600064FD6021206802F084FC84F83D50002038
:1053700084F83C0070BDCA684968206802F044FDAA
:1053800040212068EFE7226801461046EBE7000065
:1053900010B586B0044614216846FAF7CFFF23689B
:1053A000174C002117480222A34212D1036843F090
:1053B00010030360006800F0100005904FF42050C7
:1053C0000090CDE901210120CDE9031069460E4886
:1053D00012E00E4CA34211D1036843F008030360AE
:1053E000006800F008000590E0130090CDE901216D
:1053F000CDE9031269460648FEF7B0FE06B010BDBF
:105400000000014030380240001002400008004017
:10541000000C024070B5044690F83C000D4601288F
:105420000DD0012684F83C60022084F83D0042B192
:10543000042A18D0082A2AD00C2A4DD139E002209B
:1054400070BD206802F01EFC2068816941F00801EF
:1054500081612068816921F004018161206881698E
:105460002A69114311E0206802F03CFC2068816940
:1054700041F4006181612068816921F4806181616A
:10548000206881692A6941EA0221816124E020685B
:1054900002F05EFC2068C16941F00801C16120682A
:1054A000C16921F00401C1612068C1692A69114301
:1054B00011E0206802F080FC2068C16941F40061BD
:1054C000C1612068C16921F48061C1612068C1693E
:1054D0002A6941EA0221C16184F83D60002084F814
:1054E0003C0070BD10B5040003D094F83D0010B12D
:1054F00007E0012010BD002084F83C00204600F0A9
:105500000CF8022084F83D00211D206802F036FBD3
:10551000012084F83D00002010BD704710B50446FE
:105520000068012202F08EFB0B492068884202D0FD
:105530000A49884203D1416C41F40041416420682A
:10554000816801F00701062903D0016841F00101DB
:105550000160002010BD0000000001400004014077
:1055600010B504460068002202F06CFB114841F2BD
:10557000111221689310814202D00F48814209D153
:10558000086A104206D1086A184203D1486C20F418
:10559000004048642068016A114206D1016A19423C
:1055A00003D1016821F001010160012084F83D0070
:1055B000002010BD0000014000040140FEE7000093
:1055C000014A00F07BB80000E4790108014800F0CE
:1055D000B7B90000E4790108014800F06BBA000097
:1055E000E47901080948C16A49688A0707D4C26A90
:1055F00092F82420520602D44FF0FF307047C06A60
:10560000490701D4C069704700697047E47901080F
:105610000148C06A40687047E4790108014900F018
:10562000B3BC0000E479010838B5024C009400F0E6
:105630006FFD38BDE479010838B5024C009400F0E4
:10564000E6FD38BDE4790108014900F057BE0000CD
:10565000E4790108014A00F043BF0000E479010841
:10566000014A00F077BF0000E479010810B50C4C46
:10567000A18AE068FEF7ACFCE18A2069FEF7A8FC8D
:105680006168002039B1A16829B1616809680860C2
:10569000A16809680860E16A81F8220010BD000075
:1056A000E47901080148406870470000DC7901088E
:1056B0000148006870470000DC790108F0B50D462C
:1056C000D16A85B0144691F822104FF0FF36890751
:1056D0006FD5012807D0022823D00025032872D0D7
:1056E000042866D1CFE028042068016802D541F083
:1056F000400101E021F040010160680508D54FF448
:105700004071E8B201EA4501084340F4404005E039
:1057100040F2FF3000EA450040F4804011688860A4
:10572000ADE0FFF7FFF87F497F4B6FF00302012DDB
:1057300002D0022D44D10AE0884241D87B498842F8
:105740003ED37B49B0FBF1F2B0FBF3F11BE08842A2
:1057500036D87849884233D37749884204D3B0FB9E
:10576000F1F201FB120232B37449B0FBF1F141F4E2
:10577000004200BFB0FBF3F14FF4967569434FF45C
:105780007A75B1FBF5F12568491C2E6826F00106F3
:105790002E6025686E6826F03F066E60B0FBF3F35E
:1057A000206845682B4343602068C261206801621D
:1057B000ACE066E007E0B0FBF1F141F44042D9E72C
:1057C000104605B0F0BD01A91120012781E8A10014
:1057D000A08A00906946E068FEF7C0FCE08A00906D
:1057E00069462069FEF7BAFCA18A0122E068FEF74B
:1057F000A4FDE18A01222069FEF79FFD0220FEF749
:10580000D5FB0025E18A2069FEF792FD012812D020
:10581000A18A0122E068FEF790FD0120FEF7C6FB99
:10582000A18A0022E068FEF788FD0120FEF7BEFB9A
:105830006D1C092DE6D3E18A2069FEF779FD054646
:10584000122003970190A08A0090A0690290206A1C
:1058500004906946E068FEF781FCE08A0090E06908
:105860000290606A049069462069FEF777FCE06A5E
:10587000016811B14FF480708847012D01D10020DB
:105880009FE730469DE72068416821F460614160F0
:10589000606860B1A16851B10068FEF78BFA00281A
:1058A000EFD1A0680068FEF785FA0028E9D12068EA
:1058B000016841F400710160E06AC560E06A056159
:1058C000E06A8561E06AC561E06A0584E06A456274
:1058D000E16A486820F001004860E26A20F00201B5
:1058E0005160E06A21F004014160E06A21F00801A2
:1058F0004160E06A21F010014160E06A21F020017E
:1059000041602068016821F00101016020680168A0
:1059100041F0010101602068016841F4806101608B
:10592000ADE7000080F0FA0240420F0080841E00C4
:10593000400D030000093D0080969800804F120042
:105940002DE9F0410446C06A23685A6900252E46B5
:10595000110401D54FF40046510401D546F48046A8
:10596000D10401D546F48056110501D546F40066F0
:1059700057054FF0000152D5476846F480665FEA4C
:10598000877C1ED55D6825F480655D6023681D6891
:1059900045F400751D60E76A01257B6A5FEA436C88
:1059A00000D411251B0701D445F002053B791B07E4
:1059B00001D545F0200581614162436823F003036E
:1059C0002CE090F822C05FEA0C7C11D45F6827F4C9
:1059D00080675F6090F8243003F00903012B1ED12B
:1059E000E36A03251B791B0700D5232523680AE0FA
:1059F00090F824C00CF0890CBCF1010F0FD10325E5
:105A00003F0700D523251F6847F400771F60816199
:105A1000416280F82310436823F00103436090053E
:105A200016D5E36A46F40076586820F00100586005
:105A3000E36A20F002055D60E06A45F0100341254D
:105A40004360E06A90F824301B0700D4432541628C
:105A5000D00514D5E26A812546F48076506840F07E
:105A600020005060E26A92F824301B0700D483259E
:105A7000830704D420F001005060E06A4162A0680E
:105A800040B1616831B10068FEF794F96068006860
:105A9000FEF790F920684169B1434161002D07D0BC
:105AA000E06A0168002903D02846BDE8F0410847B4
:105AB000BDE8F08170B50546C16A00680C4601F189
:105AC0001402436908319BB2DE071DD0208C4005CB
:105AD000208C10D50E2101EA9010616A40F0F00090
